:020000040800F2
:1000000038050020290200083702000839020008DC
:100010003B0200083D0200083F020008000000000B
:100020000000000000000000000000004102000885
:1000300043020008000000004502000847020008D3
:100040004902000849020008490200084902000864
:100050004902000849020008490200084902000854
:100060004902000849020008490200084902000844
:100070004902000849020008490200084902000834
:100080004902000849020008490200084902000824
:100090004902000849020008490200084902000814
:1000A0004902000849020008490200084902000804
:1000B00049020008490200084902000849020008F4
:1000C00049020008490200084902000849020008E4
:1000D00049020008FD06000849020008490200081C
:1000E00049020008490200084902000849020008C4
:1000F00049020008490200084902000849020008B4
:1001000049020008490200084902000849020008A3
:100110004902000849020008490200084902000893
:100120004902000849020008490200084902000883
:100130004902000849020008490200084902000873
:100140004902000849020008490200084902000863
:100150004902000849020008490200084902000853
:100160004902000849020008490200084902000843
:100170004902000849020008490200084902000833
:10018000490200084902000800F002F800F03CF8BB
:100190000AA090E8000C82448344AAF10107DA45E2
:1001A00001D100F031F8AFF2090EBAE80F0013F0F8
:1001B000010F18BFFB1A43F0010318470C1F000082
:1001C0002C1F0000103A24BF78C878C1FAD8520713
:1001D00024BF30C830C144BF04680C6070470000C1
:1001E0000023002400250026103A28BF78C1FBD840
:1001F000520728BF30C148BF0B6070471FB500F0E1
:100200007DFB1FBD10B510BD00F035F81146FFF79E
:10021000F5FF00F0D7FA00F053F803B4FFF7F2FF50
:1002200003BC00F0ABFA00000B48016841F4700118
:1002300001600A480047FEE7FEE7FEE7FEE7FEE74B
:10024000FEE7FEE7FEE7FEE7FEE70000044805499B
:10025000034A054B7047000088ED00E08901000863
:100260003801002038050020380100207047704711
:10027000704770477047754600F028F8AE46050095
:100280006946534620F00700854618B020B5FFF7B1
:10029000DDFFBDE820404FF000064FF000074FF0B3
:1002A00000084FF0000B21F00701AC46ACE8C00994
:1002B000ACE8C009ACE8C009ACE8C0098D4670479D
:1002C0000446AFF300802046FFF7A7FF00487047C1
:1002D000D400002030B5CC1000F1200353F82430B6
:1002E0004C07E50E0F24AC40A343CD1000F12004D1
:1002F00044F82530CC1000F1200353F824304C078B
:10030000E40E02FA04F42343CD1000F1200444F873
:10031000253030BD2DE9F0470C46DDE908670021A6
:1003200000258C4600BF60E04FF0010808FA01F597
:1003300004EA050CAC4557D1D0F800804FEA410AD9
:100340004FF0030909FA0AF928EA0908C0F8008001
:10035000D0F800804FEA410902FA09F948EA090891
:10036000C0F80080012A01D0022A27D1D0F80880E5
:100370004FEA410A4FF0030909FA0AF928EA090885
:10038000C0F80880D0F808804FEA410906FA09F958
:1003900048EA0908C0F80880D0F804904FF0010836
:1003A00008FA01F829EA0809C0F80490D0F8048096
:1003B00003FA01F948EA0908C0F80480D0F80C8073
:1003C0004FEA410A4FF0030909FA0AF928EA090835
:1003D000C0F80C80D0F80C804FEA410907FA09F9FF
:1003E00048EA0908C0F80C80491C10299CD3BDE8D4
:1003F000F08700002DE9F04103460A464FEAE17C10
:1004000001EB5C7C4FEAEC0C0C464FEAE17801EB27
:1004100058784FEAE808A1EBC808B8F1000F02D0FD
:100420004FF0010801E04FF00008C4440E4601EB14
:10043000D6784FEA68080CFB08FC0CF0FF05A3F126
:100440002002D3B200201CE00C2906D103EB4302AA
:100450000E4C04EB8202175C11E0102904D10C4A07
:1004600002EB0312175C0AE0182906D103EBC30262
:10047000084C04EB8202175C01E0BDE8F081421CED
:10048000D0B2A842E0DB00BFF7E700000609000891
:100490007A0D00086A1300081CB50B48006840F08C
:1004A0002000094908600120032100230246CDE90C
:1004B000001049020548FFF72DFF0120044908609C
:1004C0000449C1F8A8021CBD3038024000140240A3
:1004D000A4824242008042422DE9F041074688460C
:1004E00014461D46284600F033F8C5F1040007FA0B
:1004F00000F60F20284100EA0800064306F00F0628
:10050000E21704EBD2625211920002F1E022D2F81B
:1005100000212146E31704EBD3635B11A4EB431CDA
:10052000012303FA0CF31A432046E31704EBD363C9
:100530005B119B0003F1E023C3F800210348005D39
:1005400040EA061001490855BDE8F08100E400E0EA
:100550000146072323EA01021202054B18684FF6F1
:10056000FF031840034B18431043014B18607047BA
:100570000CED00E00000FA054A0A52020243014B6A
:100580001A60704708ED00E0F0B504460D461646C7
:100590001F461448006840F001001249086000201E
:1005A0001049083108600F4800680F4908400D499C
:1005B00008600E48091D0860081F006820F48020AC
:1005C000091F0860002007490C3108603B4632468D
:1005D0002946204600F00CF800210846FFF7CCFF22
:1005E000F0BD000000380240FFFFF6FE103000248E
:1005F000F0B504460D46002100203D4E366846F415
:1006000080363B4F3E6001E04E1CB1B2384E36683A
:1006100006F400361EB941F6FF76B142F4DB41F62E
:10062000FF76B14201D1012060E0314E403636689C
:1006300046F080562E4F40373E602E4E366846F4C8
:1006400040462C4F3E602A4E0836366846F4144623
:10065000274F08373E60264E366826F08076244FB6
:100660003E6045EA84160127C7EB520746EA074673
:1006700046EA036646F480061D4F3F1D3E603E1F5E
:10068000366846F080763F1F3E6000BF184E3668E1
:1006900006F00076002EF9D0174E366846F48076C4
:1006A000154F3E603E46366846F400763E603E4654
:1006B000366846F480663E603E46366846F005067B
:1006C0003E600B4E0836366826F00306084F0837A2
:1006D0003E603E46366846F002063E6000BF044E6D
:1006E0000836366806F00C06082EF8D1F0BD00007A
:1006F0000038024000700040003C02401C4909885C
:1007000001F0200109B31A498988C8B2194909883A
:1007100001F40041C9B91749098801F4804161B168
:100720000A2803D00021134A118020E011490988CA
:1007300041F400410F4A118019E00D2806D10D49FE
:10074000098841F480410B4A118010E00949098869
:10075000C1F30D01084A505406490988491C054A4D
:10076000118011460988C72901DD002111807047D9
:1007700000100140080000200C000020014600BFCE
:10078000704700004FF0E021096921F004014FF0AB
:10079000E0221161C21700EB5272C2F3C702074B8D
:1007A0001A701946097801EB4102C2EBC1114FF6EC
:1007B000FF7202EAC101024A118070470000002066
:1007C0000200002010B500240723022208214FF464
:1007D000A870FFF7D9FEA820FFF7D4FF4FF4E1314E
:1007E000542000F00BF8FFF757FE0C2102A0FFF792
:1007F00001FE002010BD000061000000F0B52DEDED
:10080000028B83B005460E46384905FB01F000EE29
:10081000100AF8EE400A300100EE100AB8EE400A65
:1008200080EE801AB0EE418ABCEEC80A10EE100AC3
:1008300084B200EE104AB8EE400A38EE400AF3EEF9
:10084000000A20EE200ABCEEC00A10EE107A4FF625
:10085000FF7000EA0414E01984B22548006840F0F3
:1008600001002349086022481430006840F010005D
:100870001F49143108600120022100230A46CDE9F6
:1008800000104FF4C0611B48FFF744FD0722092107
:100890001848FFF71FFD07220A211648FFF71AFD27
:1008A00015480481808920F4004013498881084656
:1008B000808940F0080088810846808940F0040063
:1008C00088810846808940F0200088810223252203
:1008D00003210846FFF700FE0748808940F40050D6
:1008E0000549888103B0BDEC028BF0BD40420F008A
:1008F0003038024000000240001001404FF04070CC
:10090000E1EE100A70470000000000000000000047
:100910000000000000003F40000000000000000058
:100920003000400030004000000009000BC03D00D6
:100930000BC03D00090018C024407FE022403180F8
:100940000000180024C01B000D803240018003808D
:100950001C4027401C800740004010006000000041
:100960000000000000000000000000001F80204088
:1009700040200000402020401F80000000000900AF
:1009800006001F80060009000000040004003F80EC
:1009900004000400000000100060000000000000DF
:1009A0000000040004000400040004000000000033
:1009B00000400000000000000000002001C0060010
:1009C0003800400000001F802040204020401F8051
:1009D0000000000010403FC000400000000018C0B0
:1009E0002140224024401840000010802040244034
:1009F00024401B80000002000D0011003FC0014098
:100A000000003C80244024402440238000001F80BC
:100A1000244024403440038000003000200027C0E0
:100A20003800200000001B802440244024401B800C
:100A300000001C0022C0224022401F800000000055
:100A400000000840000000000000000000000460FA
:100A5000000000000000000004000A0011002080D7
:100A600040400900090009000900090000000000D9
:100A70004040208011000A0004001800200023409C
:100A80002400180000001F802040274029401F40FC
:100A90000000004007C039000F0001C000402040A6
:100AA0003FC0244024401B8000001F802040204085
:100AB00020403080000020403FC0204020401F8068
:100AC000000020403FC024402E4030C000002040A5
:100AD0003FC024402E00300000000F001080204056
:100AE00022403380020020403FC0040004003FC089
:100AF0002040204020403FC02040204000000060B7
:100B0000202020203FC02000200020403FC0244063
:100B10000B0030C0204020403FC02040004000403B
:100B200000C03FC03C0003C03C003FC0000020406C
:100B30003FC00C4023003FC020001F8020402040C9
:100B400020401F80000020403FC0244024001800A7
:100B500000001F802140214020E01FA00000204015
:100B60003FC02440260019C0004018C02440244043
:100B7000224031800000300020403FC02040300043
:100B8000000020003F80004000403F802000200007
:100B90003E0001C0070038002000380007C03C00BC
:100BA00007C038000000204039C0060039C020408E
:100BB00000002000384007C03840200000003040CE
:100BC00021C02640384020C00000000000007FE027
:100BD000402040200000000070000C000380004016
:100BE00000000000402040207FE0000000000000E6
:100BF0002000400020000000000000100010001045
:100C00000010001000100000000040000000000074
:100C10000000000002800540054003C000402000A5
:100C20003FC00440044003800000000003800440F3
:100C300004400640000000000380044024403FC000
:100C40000040000003800540054003400000000014
:100C500004401FC0244024402000000002E0055052
:100C600005500650042020403FC00440040003C04B
:100C700000400000044027C00040000000000010B9
:100C80000010041027E00000000020403FC0014099
:100C9000070004C00440204020403FC00040004006
:100CA000000007C0040007C0040003C000000440A7
:100CB00007C00440040003C000400000038004405B
:100CC000044003800000041007F004500440038037
:100CD0000000000003800440045007F000100440AE
:100CE00007C0024004000400000000000640054068
:100CF000054004C00000000004001F8004400040C4
:100D00000000040007800040044007C000400400C9
:100D1000070004C0018006000400060001C00700AF
:100D200001C006000000044006C0010006C00440E7
:100D300000000410071004E0018006000400000019
:100D4000044005C00640044000000000000004000C
:100D50007BE040200000000000000000FFF00000E9
:100D60000000000040207BE0040000000000400084
:100D70008000400020002000400000000000000033
:100D80000000000000000000000000000000000063
:100D90001FCC000C00000000000000000800300024
:100DA00060000800300060000000022003FC1E20EC
:100DB000022003FC1E200220000000000E18110477
:100DC0003FFF10840C78000000000F0010840F38E3
:100DD00000C0077818840078000000780F8410C4E1
:100DE00011240E9800E400840008080068007000D8
:100DF00000000000000000000000000000000000F3
:100E000007E01818200440020000000040022004FF
:100E1000181807E0000000000000024002400180B6
:100E20000FF001800240024000000080008000803E
:100E30000FF800800080008000000001000D000E0F
:100E400000000000000000000000000000800080A2
:100E5000008000800080008000800000000C000CFA
:100E60000000000000000000000000000006001864
:100E700000600180060018002000000007F008084C
:100E800010041004080807F000000000080408041B
:100E90001FFC000400040000000000000E0C1014F1
:100EA0001024104411840E0C000000000C181004D3
:100EB0001104110412880C700000000000E00320EF
:100EC000042408241FFC0024000000001F98108444
:100ED00011041104108810700000000007F0088849
:100EE0001104110418880070000000001C0010009C
:100EF00010FC13001C001000000000000E3811440C
:100F00001084108411440E38000000000700088C83
:100F100010441044088807F00000000000000000A2
:100F2000030C030C000000000000000000000001A2
:100F300001060000000000000000000000800140E9
:100F400002200410080810040000022002200220E1
:100F500002200220022002200000000010040808E5
:100F60000410022001400080000000000E0012006A
:100F7000100C106C10800F00000003E00C1813E43C
:100F8000142417C4082807D000000004003C03C440
:100F90001C40074000E4001C000410041FFC110466
:100FA000110411040E880070000003E00C181004F6
:100FB0001004100410081C10000010041FFC100482
:100FC00010041004080807F0000010041FFC1104AE
:100FD000110417C410040818000010041FFC1104A9
:100FE000110017C010000800000003E00C181004E6
:100FF000100410441C780040000010041FFC1084F2
:101000000080008010841FFC1004000010041004F5
:101010001FFC100410040000000000030001100178
:1010200010011FFE10001000000010041FFC11042E
:1010300003801464181C1004000010041FFC10042A
:10104000000400040004000C000010041FFC1F003A
:1010500000FC1F001FFC1004000010041FFC0C0407
:10106000030000E010181FFC100007F0080810042F
:1010700010041004080807F0000010041FFC10847E
:101080001080108010800F00000007F00818102456
:101090001024101C080A07F2000010041FFC1104A1
:1010A000110011C011300E0C000400000E1C1104C0
:1010B0001084108410441C38000018001000100424
:1010C0001FFC100410001800000010001FF810048E
:1010D0000004000410041FF8100010001E0011E0AE
:1010E000001C007013801C0010001FC0103C00E0AA
:1010F0001F0000E0103C1FC000001004180C163444
:1011000001C001C01634180C100410001C00130498
:1011100000FC13041C00100000000804101C1064E4
:10112000108413041C0410180000000000000000CC
:101130007FFE4002400240020000000030000C0030
:1011400003800060001C0003000000004002400219
:1011500040027FFE000000000000000000002000B0
:10116000400040004000200000000001000100019C
:1011700000010001000100010001000040004000EA
:101180002000000000000000000000000098012482
:1011900001440144014400FC000410001FFC0088CD
:1011A0000104010400880070000000000070008845
:1011B00001040104010400880000000000700088A0
:1011C0000104010411081FFC0004000000F80144A0
:1011D00001440144014400C800000000010401046E
:1011E0000FFC1104110411001800000000D60129A1
:1011F0000129012901C90106000010041FFC008417
:1012000001000100010400FC0004000001041904B5
:1012100019FC0004000400000000000000030001AD
:101220000101190119FE0000000010041FFC002438
:10123000004001B4010C010400000000100410047F
:101240001FFC0004000400000000010401FC010474
:10125000010001FC0104010000FC010401FC008408
:1012600001000100010400FC0004000000F801047A
:1012700001040104010400F80000010101FF0085E0
:101280000104010400880070000000000070008864
:1012900001040104010501FF00010104010401FC36
:1012A00000840104010001800000000000CC012442
:1012B0000124012401240198000000000100010024
:1012C00007F80104010400000000010001F8000417
:1012D00000040004010801FC000401000180017009
:1012E000000C001001600180010001F0010C0030D1
:1012F00001C00030010C01F0010000000104018C6C
:1013000000740170018C0104000001010181017170
:10131000000E001801600180010000000184010C32
:10132000013401440184010C0000000000000000B1
:10133000000001003EFC40024002000000000000EE
:101340000000FFFF0000000000000000400240021B
:101350003EFC010000000000000000006000800072
:10136000800040004000200020000000000000003D
:10137000000000000000000000000000000000006D
:10138000000000000000000000000000000000005D
:10139000000000000000000000000000000F803886
:1013A0000FFE380F80380000000000000000000031
:1013B00000000000000000000100000600000C001A
:1013C000003800003100000600000C00003800006A
:1013D0003000000000000000000061800067F80796
:1013E000F980006180006180006180006180006799
:1013F000F807F98000618000000000000000000094
:1014000001C0E003E0F00630080418081FFFFE04E6
:101410000E080787F00381E000000000000001F0E3
:1014200000060C00040408060C7001F9C0000E0050
:10143000003BE000EC18070808040C180003E0006B
:1014400000000001E00007F003F818041C0804176E
:101450000807E1D003C0E00023B0003C08002008EA
:101460000000100000000000000100003100003208
:1014700000001C0000000000000000000000000050
:10148000000000000000000000000000000000005C
:10149000000000000000000000007F0001FFC00706
:1014A00080F00C0018100004200002000000000072
:1014B000002000021000040C00180780F001FFC09B
:1014C000007F00000000000000000000000000009D
:1014D0000000000000004200006600006600003CC2
:1014E0000000180003FFC0001800003C0000660068
:1014F0000066000042000000000008000008000034
:10150000080000080000080001FFC00008000008F3
:1015100000000800000800000800000000000001B2
:1015200000003100003200001C000000000000003C
:1015300000000000000000000000000000000000AB
:101540000000080000080000080000080000080073
:101550000008000008000008000008000008000063
:10156000000000000000000000003800003800000B
:101570003800000000000000000000000000000033
:1015800000000000000000000000000600001C0039
:101590000070000180000E0000380000C00007004D
:1015A000001C0000300000000000000000007F80F0
:1015B00001FFE0038070060018040008040008061C
:1015C000001803807001FFE0007F80000000000031
:1015D0000000000001000801000801000803FFF8F6
:1015E00007FFF800000800000800000800000000E5
:1015F000000000000001C03802C058040098040137
:1016000018040218040418061C1803F81801E0F85E
:1016100000000000000000000001C0E003C0F00472
:10162000000804080804080806180803F41801E76D
:10163000F00001E0000000000000000000000300D6
:10164000000D00001100006100008108030108077F
:10165000FFF80FFFF800010800010800000000007B
:10166000000000E007FCD006080806100806100875
:10167000061008061838060FF00607C00000000024
:101680000000000000003F8001FFE00384300208FA
:1016900018041008041008041008071810030FF0AD
:1016A0000007C000000000000000000003C00007A9
:1016B00000000600000600F80607F806180006E01D
:1016C0000007000006000000000000000001E1E04B
:1016D00003F7F0063410041808041808040C080472
:1016E0000C0806161803F3F001C1E000000000002A
:1016F0000000F80003FC3003063804020804020866
:101700000402080404100308F001FFC0007F000079
:1017100000000000000000000000000000000000C9
:1017200000007038007038007038000000000000C1
:1017300000000000000000000000000000000000A9
:10174000000000000000301A00301C000000000003
:101750000000000000000000000000000000000089
:1017600000080000140000220000410000808001F9
:1017700000400200200400100800080000000000E3
:1017800000002100002100002100002100002100B4
:1017900000210000210000210000210000210000A4
:1017A0000000000000000000080008040010020013
:1017B0002001004000808000410000220000140051
:1017C00000080000000000000003C00004C0000486
:1017D0000000080038080F380808380810000C30DE
:1017E0000007E00003C000000000000000003F8090
:1017F00000FFE0038070020F1006708804C08804A8
:101800008308047F8802C09003012000FE4000008E
:10181000080000180001F8003E0801C2000702009D
:1018200007E20000FE00001FC80001F800003800B9
:10183000000804000807FFF807FFF8040808040878
:101840000804080804080806180803F41801E7F05B
:101850000001E0000000000000003F8001FFE00305
:101860008070020018040008040008040008040046
:10187000100600200780C000000004000807FFF8E1
:1018800007FFF80400080400080400080400180218
:10189000001003807001FFE0007F80000000040062
:1018A0000807FFF807FFF8040808040808040808F8
:1018B000040808043E08040008060018010060003F
:1018C000000004000807FFF807FFF80408080408F0
:1018D00000040800040800043E00060000060000A2
:1018E000018000000000000000003F8001FFE003D5
:1018F00080700600180400080402080402080203AD
:10190000F00783F000020000020004000807FFF85F
:1019100007FFF8040808000800000800000800009D
:10192000080004080807FFF807FFF8040008000093
:101930000000000004000804000804000807FFF885
:1019400007FFF80400080400080400080000000075
:101950000000000000000006000007000001040075
:101960000104000104000307FFFE07FFFC04000060
:1019700004000004000004000807FFF807FFF80453
:101980000C08001800003E0004C7800503C80600CC
:10199000F804003804001800000804000807FFF8E5
:1019A00007FFF80400080000080000080000080015
:1019B000000800000800001800006000000004009B
:1019C0000807FFF807800807FC00007FC00003F845
:1019D0000007C000780007800807FFF807FFF80439
:1019E000000804000807FFF807000803C00000E033
:1019F00000003800001E000007000001C00400F0D5
:101A000007FFF8040000000000007F8001FFE003F2
:101A1000807006001804000804000806001803007F
:101A20003001FFE0007F8000000004000807FFF89D
:101A300007FFF8040408040400040400040400047C
:101A40000400060C0003F80001F000000000000094
:101A500000007F8001FFE00380700600880400889A
:101A60000400C806003C03003E01FFE6007F84003E
:101A7000000004000807FFF807FFF804080804083E
:101A800000040C00040F00040BC00610F003F03833
:101A900001E00800000800000001E0F803F0300653
:101AA0003010041808041808040C08040C08020676
:101AB000180207F00781E000000001800006000026
:101AC00004000004000004000807FFF807FFF80402
:101AD000000804000004000006000001800004006B
:101AE0000007FFE007FFF0040018000008000008EE
:101AF00000000800000800000804001007FFE004D0
:101B0000000004000006000007E00007FE00041FBC
:101B1000E00001F80000380001E0043E0007C000CA
:101B200006000004000004000007E00007FFC004F6
:101B30001FF80007C007F80007FF80043FF8000700
:101B4000C004F800070000040000000000040008C2
:101B500006001807C07805F1C8003E00001F800489
:101B600063E80780F806001804000800000004007D
:101B70000006000007800007E008047C08001FF84A
:101B80000007F800180804E0080700000600000439
:101B900000000000000100080600380400F80403FB
:101BA000E8040F08047C0805F00807C008070018BF
:101BB00004006000000000000000000000000000C1
:101BC00000000000003FFFFE200002200002200075
:101BD00002200002200002000000000000000000BF
:101BE00008000007000000C00000380000060000E8
:101BF00001C000003000000E0000010000000000E5
:101C0000000000002000022000022000022000024C
:101C10002000023FFFFE0000000000000000000066
:101C2000000000000000000000000008000010009C
:101C3000003000002000003000001000000800000C
:101C40000000000000000000010000010000010091
:101C5000000100000100000100000100000100007F
:101C60000100000100000100000100000000000070
:101C70000000002000002000001000001000000004
:101C80000000000000000000000000000000000054
:101C9000000000F00019F8001B18002208002608B8
:101CA000002408002410003FF8001FF8000008007E
:101CB000001800000004000007FFF80FFFF00018F4
:101CC00018001008002008002008003018001FF03D
:101CD000000FC00000000000000007C0001FF0005F
:101CE0001830002008002008002008003C08001CD4
:101CF000100000600000000000000000000007C0AD
:101D0000001FF000381800200800200800200804F8
:101D1000101007FFF80FFFF0000010000000000097
:101D2000000000000007C0001FF000123000221861
:101D3000002208002208003208001E10000E2000B9
:101D4000000000000000200000200800200801FF23
:101D5000F803FFF8062008042008042008072000E4
:101D600003000000000000000000000E000E6E00E6
:101D70001FF30031B10020B10020B1003191001FEC
:101D800013002E1E00200E0030000000000400088A
:101D900007FFF80FFFF800100800200000200000E7
:101DA0002008003FF8001FF80000080000000000B5
:101DB00000000000002008002008002008063FF86E
:101DC000063FF800000800000800000800000000BE
:101DD00000000000000000000000030000030020DD
:101DE00001002001002003063FFE063FFC0000002A
:101DF00000000000000000000004000807FFF80FCA
:101E0000FFF8000188000300002FC00038F8002010
:101E1000380020080000080000000000000000005A
:101E200004000804000804000807FFF80FFFF8008A
:101E3000000800000800000800000000000000206A
:101E400008003FF8003FF8001008002000003FF8AD
:101E5000003FF8001008002000003FF8003FF800A5
:101E60000008000000002008003FF8003FF80010C4
:101E700008001000002000002008003FF8001FF8B4
:101E80000000080000000000000007C0000FF00084
:101E90001830003008002008002008003008001822
:101EA00030000FF00007C00000000000000020011B
:101EB000003FFF003FFF0010110020090020080034
:101EC0002008003038001FF0000FC00000000000A4
:101ED000000007C0001FF00038180020080020088C
:101EE000002009001011001FFF003FFF000001004B
:101EF0000000002008002008002008003FF8003FF4
:101F0000F800080800100800200800200000300039
:101F1000003000000000000000000000000C78000D
:101F20001E18003308002308002108002188002122
:101F3000980030F000386000000000000000200031
:101F400000200000200000FFF003FFF80020080040
:101F50002008002008000030000000000000000001
:101F600000002000003FF0007FF80000180000088B
:101F7000000008002010003FF8007FF00000100073
:101F80000000000000002000003000003C00003F86
:101F9000800023F0000078000070002380003C00E7
:101FA000003000002000002000003C00003FE00066
:101FB00023F80000E0002700003E00003FE0002181
:101FC000F80001E0003E00002000000000002008B2
:101FD000002008003838003E680027800003C80051
:101FE0002CF80038380020180020080000000000FD
:101FF00000002000003003003C01003F830023EC80
:10200000000070002380003C000020000020000041
:102010000000000000000000003808002038002008
:10202000F80023E8002F88003E0800380800201838
:102030000000700000000000000000000000000030
:1020400000000000000008000014001FF7FC300032
:102050000620000200000000000000000000000058
:10206000000000000000000000000000FFFFFF0073
:102070000000000000000000000000000000000060
:10208000000000002000023000061FF7FC001400D2
:102090000008000000000000000000000000000038
:1020A0000000000000180000600000400000400038
:1020B00000200000100000080000040000040000E0
:1020C0000C00001000000000E820000800000020C4
:1020D0000C000000C4010008F42000080C000020DF
:1020E0002C050000E00100080000000000000000D6
:0420F00000000000EC
:040000050800018965
:00000001FF
